{"abi":[{"type":"constructor","inputs":[{"name":"plonkVerifierAddress","type":"address","internalType":"address"}],"stateMutability":"nonpayable"},{"type":"function","name":"s_plonkVerifierAddress","inputs":[],"outputs":[{"name":"","type":"address","internalType":"address"}],"stateMutability":"view"},{"type":"function","name":"submitProof","inputs":[{"name":"proof","type":"bytes","internalType":"bytes"},{"name":"pubSignals","type":"uint256[]","internalType":"uint256[]"}],"outputs":[{"name":"","type":"bool","internalType":"bool"}],"stateMutability":"nonpayable"},{"type":"event","name":"ProofResult","inputs":[{"name":"result","type":"bool","indexed":false,"internalType":"bool"}],"anonymous":false}],"bytecode":{"object":"0x608060405234801561001057600080fd5b5060405161044e38038061044e83398101604081905261002f91610054565b600080546001600160a01b0319166001600160a01b0392909216919091179055610084565b60006020828403121561006657600080fd5b81516001600160a01b038116811461007d57600080fd5b9392505050565b6103bb806100936000396000f3fe608060405234801561001057600080fd5b50600436106100355760003560e01c8062c80d811461003a57806344896a9a14610062575b600080fd5b61004d61004836600461020c565b61008d565b60405190151581526020015b60405180910390f35b600054610075906001600160a01b031681565b6040516001600160a01b039091168152602001610059565b60008054604051631e8e1e1360e01b815282916001600160a01b031690631e8e1e13906100c090879087906004016102c4565b602060405180830381865afa1580156100dd573d6000803e3d6000fd5b505050506040513d601f19601f82011682018060405250810190610101919061035c565b90507fb6030296ed6d28f593d0c257c080ef243cd60eb419e82d45d9e530c59391510281604051610136911515815260200190565b60405180910390a19392505050565b634e487b7160e01b600052604160045260246000fd5b604051601f8201601f1916810167ffffffffffffffff8111828210171561018457610184610145565b604052919050565b600082601f83011261019d57600080fd5b8135602067ffffffffffffffff8211156101b9576101b9610145565b8160051b6101c882820161015b565b92835284810182019282810190878511156101e257600080fd5b83870192505b84831015610201578235825291830191908301906101e8565b979650505050505050565b6000806040838503121561021f57600080fd5b823567ffffffffffffffff8082111561023757600080fd5b818501915085601f83011261024b57600080fd5b813560208282111561025f5761025f610145565b610271601f8301601f1916820161015b565b828152888284870101111561028557600080fd5b828286018383013760009281018201929092529094508501359150808211156102ad57600080fd5b506102ba8582860161018c565b9150509250929050565b604081526000835180604084015260005b818110156102f257602081870181015160608684010152016102d5565b50600060608285010152601f19601f820116830190506060810160206060858403016020860152818651808452608085019150602088019450600093505b808410156103505784518252938201936001939093019290820190610330565b50979650505050505050565b60006020828403121561036e57600080fd5b8151801515811461037e57600080fd5b939250505056fea2646970667358221220545eef0c280bb16cfededfa7e6e1bb487558ecad50907deced31f5effa0ff31264736f6c63430008170033","linkReferences":{}},"methodIdentifiers":{"s_plonkVerifierAddress()":"44896a9a","submitProof(bytes,uint256[])":"00c80d81"},"id":0}